:020000040000fa
:080000000002040000000000f2
:020000040000fa
:0400080006060000e8
:020000040000fa
:04000c0034030000b9
:020000040000fa
:040010007603000073
:020000040000fa
:040014005403000091
:020000040000fa
:04001800960300004b
:020000040000fa
:04001c0006060000d4
:020000040000fa
:0400200006060000d0
:020000040000fa
:0400240006060000cc
:020000040000fa
:0400280006060000c8
:020000040000fa
:04002c0006060000c4
:020000040000fa
:0400300006060000c0
:020000040000fa
:0400340006060000bc
:020000040000fa
:0400380006060000b8
:020000040000fa
:04003c0006060000b4
:020000040000fa
:0400400006060000b0
:020000040000fa
:0400440006060000ac
:020000040000fa
:0400480006060000a8
:020000040000fa
:04004c0006060000a4
:020000040000fa
:0400500006060000a0
:020000040000fa
:04005400060600009c
:020000040000fa
:040058000606000098
:020000040000fa
:04005c000606000094
:020000040000fa
:040060000606000090
:020000040000fa
:04006400060600008c
:020000040000fa
:040068000606000088
:020000040000fa
:04006c00b6030000d7
:020000040000fa
:040070000606000080
:020000040000fa
:04007400060600007c
:020000040000fa
:040078000606000078
:020000040000fa
:04007c000606000074
:020000040000fa
:040080000606000070
:020000040000fa
:04008400060600006c
:020000040000fa
:040088000606000068
:020000040000fa
:04008c000606000064
:020000040000fa
:040090000606000060
:020000040000fa
:04009400060600005c
:020000040000fa
:040098000606000058
:020000040000fa
:04009c000606000054
:020000040000fa
:0400a0000606000050
:020000040000fa
:0400a400060600004c
:020000040000fa
:0400a8000606000048
:020000040000fa
:0400ac000606000044
:020000040000fa
:0400b0000606000040
:020000040000fa
:0400b400060600003c
:020000040000fa
:0400b8000606000038
:020000040000fa
:0400bc000606000034
:020000040000fa
:0400c0000606000030
:020000040000fa
:0400c400060600002c
:020000040000fa
:0400c8000606000028
:020000040000fa
:0400cc000606000024
:020000040000fa
:0400d0000606000020
:020000040000fa
:0400d400060600001c
:020000040000fa
:0400d8000606000018
:020000040000fa
:0400dc000606000014
:020000040000fa
:0400e0000606000010
:020000040000fa
:0400e400060600000c
:020000040000fa
:0400e8000606000008
:020000040000fa
:0400ec000606000004
:020000040000fa
:0400f0000606000000
:020000040000fa
:0400f40006060000fc
:020000040000fa
:0400f80006060000f8
:020000040000fa
:0400fc0006060000f4
:020000040000fa
:0401000006060000ef
:020000040000fa
:0401040006060000eb
:020000040000fa
:0401080006060000e7
:020000040000fa
:04010c0006060000e3
:020000040000fa
:0401100006060000df
:020000040000fa
:0401140006060000db
:020000040000fa
:0401180006060000d7
:020000040000fa
:04011c0006060000d3
:020000040000fa
:0401200006060000cf
:020000040000fa
:0401240006060000cb
:020000040000fa
:0401280006060000c7
:020000040000fa
:04012c0006060000c3
:020000040000fa
:0401300006060000bf
:020000040000fa
:0401340006060000bb
:020000040000fa
:0401380006060000b7
:020000040000fa
:04013c0006060000b3
:020000040000fa
:0401400006060000af
:020000040000fa
:0401440006060000ab
:020000040000fa
:0401480006060000a7
:020000040000fa
:04014c0006060000a3
:020000040000fa
:04015000060600009f
:020000040000fa
:04015400060600009b
:020000040000fa
:040158000606000097
:020000040000fa
:04015c000606000093
:020000040000fa
:04016000060600008f
:020000040000fa
:04016400060600008b
:020000040000fa
:040168000606000087
:020000040000fa
:04016c000606000083
:020000040000fa
:04017000060600007f
:020000040000fa
:04017400060600007b
:020000040000fa
:040178000606000077
:020000040000fa
:04017c000606000073
:020000040000fa
:04018000060600006f
:020000040000fa
:04018400060600006b
:020000040000fa
:040188000606000067
:020000040000fa
:04018c000606000063
:020000040000fa
:04019000060600005f
:020000040000fa
:04019400060600005b
:020000040000fa
:040198000606000057
:020000040000fa
:04019c000606000053
:020000040000fa
:0401a000060600004f
:020000040000fa
:0401a400060600004b
:020000040000fa
:0401a8000606000047
:020000040000fa
:0401ac000606000043
:020000040000fa
:0401b000060600003f
:020000040000fa
:0401b400060600003b
:020000040000fa
:0401b8000606000037
:020000040000fa
:0401bc000606000033
:020000040000fa
:0401c000060600002f
:020000040000fa
:0401c400060600002b
:020000040000fa
:0401c8000606000027
:020000040000fa
:0401cc000606000023
:020000040000fa
:0401d000060600001f
:020000040000fa
:0401d400060600001b
:020000040000fa
:0401d8000606000017
:020000040000fa
:0401dc000606000013
:020000040000fa
:0401e000060600000f
:020000040000fa
:0401e400060600000b
:020000040000fa
:0401e8000606000007
:020000040000fa
:0401ec000606000003
:020000040000fa
:0401f00006060000ff
:020000040000fa
:0401f40006060000fb
:020000040000fa
:0401f80006060000f7
:020000040000fa
:0401fc0006060000f3
:020000040000fa
:0402080006060000e6
:020000040000fa
:04020c0034030000b7
:020000040000fa
:040210007603000071
:020000040000fa
:04021400540300008f
:020000040000fa
:040218009603000049
:020000040000fa
:04021c0006060000d2
:020000040000fa
:0402200006060000ce
:020000040000fa
:0402240006060000ca
:020000040000fa
:0402280006060000c6
:020000040000fa
:04022c0006060000c2
:020000040000fa
:0402300006060000be
:020000040000fa
:0402340006060000ba
:020000040000fa
:0402380006060000b6
:020000040000fa
:04023c0006060000b2
:020000040000fa
:0402400006060000ae
:020000040000fa
:0402440006060000aa
:020000040000fa
:0402480006060000a6
:020000040000fa
:04024c0006060000a2
:020000040000fa
:04025000060600009e
:020000040000fa
:04025400060600009a
:020000040000fa
:040258000606000096
:020000040000fa
:04025c000606000092
:020000040000fa
:04026000060600008e
:020000040000fa
:04026400060600008a
:020000040000fa
:040268000606000086
:020000040000fa
:04026c00b6030000d5
:020000040000fa
:04027000060600007e
:020000040000fa
:04027400060600007a
:020000040000fa
:040278000606000076
:020000040000fa
:04027c000606000072
:020000040000fa
:04028000060600006e
:020000040000fa
:04028400060600006a
:020000040000fa
:040288000606000066
:020000040000fa
:04028c000606000062
:020000040000fa
:04029000060600005e
:020000040000fa
:04029400060600005a
:020000040000fa
:040298000606000056
:020000040000fa
:04029c000606000052
:020000040000fa
:0402a000060600004e
:020000040000fa
:0402a400060600004a
:020000040000fa
:0402a8000606000046
:020000040000fa
:0402ac000606000042
:020000040000fa
:0402b000060600003e
:020000040000fa
:0402b400060600003a
:020000040000fa
:0402b8000606000036
:020000040000fa
:0402bc000606000032
:020000040000fa
:0402c000060600002e
:020000040000fa
:0402c400060600002a
:020000040000fa
:0402c8000606000026
:020000040000fa
:0402cc000606000022
:020000040000fa
:0402d000060600001e
:020000040000fa
:0402d400060600001a
:020000040000fa
:0402d8000606000016
:020000040000fa
:0402dc000606000012
:020000040000fa
:0402e000060600000e
:020000040000fa
:0402e400060600000a
:020000040000fa
:0402e8000606000006
:020000040000fa
:0402ec000606000002
:020000040000fa
:0402f00006060000fe
:020000040000fa
:0402f40006060000fa
:020000040000fa
:0402f80006060000f6
:020000040000fa
:0402fc0006060000f2
:020000040000fa
:0403000006060000ed
:020000040000fa
:0403040006060000e9
:020000040000fa
:0403080006060000e5
:020000040000fa
:04030c0006060000e1
:020000040000fa
:0403100006060000dd
:020000040000fa
:0403140006060000d9
:020000040000fa
:0403180006060000d5
:020000040000fa
:04031c0006060000d1
:020000040000fa
:0403200006060000cd
:020000040000fa
:0403240006060000c9
:020000040000fa
:0403280006060000c5
:020000040000fa
:04032c0006060000c1
:020000040000fa
:0403300006060000bd
:020000040000fa
:0403340006060000b9
:020000040000fa
:0403380006060000b5
:020000040000fa
:04033c0006060000b1
:020000040000fa
:0403400006060000ad
:020000040000fa
:0403440006060000a9
:020000040000fa
:0403480006060000a5
:020000040000fa
:04034c0006060000a1
:020000040000fa
:04035000060600009d
:020000040000fa
:040354000606000099
:020000040000fa
:040358000606000095
:020000040000fa
:04035c000606000091
:020000040000fa
:04036000060600008d
:020000040000fa
:040364000606000089
:020000040000fa
:040368000606000085
:020000040000fa
:04036c000606000081
:020000040000fa
:04037000060600007d
:020000040000fa
:040374000606000079
:020000040000fa
:040378000606000075
:020000040000fa
:04037c000606000071
:020000040000fa
:04038000060600006d
:020000040000fa
:040384000606000069
:020000040000fa
:040388000606000065
:020000040000fa
:04038c000606000061
:020000040000fa
:04039000060600005d
:020000040000fa
:040394000606000059
:020000040000fa
:040398000606000055
:020000040000fa
:04039c000606000051
:020000040000fa
:0403a000060600004d
:020000040000fa
:0403a4000606000049
:020000040000fa
:0403a8000606000045
:020000040000fa
:0403ac000606000041
:020000040000fa
:0403b000060600003d
:020000040000fa
:0403b4000606000039
:020000040000fa
:0403b8000606000035
:020000040000fa
:0403bc000606000031
:020000040000fa
:0403c000060600002d
:020000040000fa
:0403c4000606000029
:020000040000fa
:0403c8000606000025
:020000040000fa
:0403cc000606000021
:020000040000fa
:0403d000060600001d
:020000040000fa
:0403d4000606000019
:020000040000fa
:0403d8000606000015
:020000040000fa
:0403dc000606000011
:020000040000fa
:0403e000060600000d
:020000040000fa
:0403e4000606000009
:020000040000fa
:0403e8000606000005
:020000040000fa
:0403ec000606000001
:020000040000fa
:0403f00006060000fd
:020000040000fa
:0403f40006060000f9
:020000040000fa
:0403f80006060000f5
:020000040000fa
:0403fc0006060000f1
:020000040000fa
:100400008f3e21000e7f22000e01880000000000b8
:10041000000020000000e000020032000001200087
:100420002002880014000700fa0107000000e00025
:1004300003003a00c02a2600010020000200370015
:100440000000200001002000810f70000100320038
:1004500014000700000020000000e000020032004d
:1004600000000200000000003665020000000000ed
:100470000040da000000fe004440a900a05920001e
:100480000000e000030032000020200090018800fe
:100490004440a800000006008a1f78008b1f7800e7
:1004a00000000600a1028800800478000000eb0034
:1004b0001f003700e284440054a0b4009905ba003c
:1004c000e284440054a0b4009906ba00e2844400d7
:1004d00054a0b4000006eb00476fde00fd07b20039
:1004e000ae018800636ce10003003a00eaff0700f8
:1004f0000000eb000e003700606ce10008003a00dd
:10050000004deb000a05e800020039003420ec0041
:100510000af0a0008b05e900f9ff3e000400370057
:100520006168e100010032000086eb000b0007006b
:1005300019c7ba001905ba000e04e00003003a001a
:100540000a00e000dbff3a0000000600fe07b200f0
:10055000ae0288008a047800f5ff37000cd0a300b3
:10056000e20f4d001c00390089027800354dba00b9
:100570000a05e800020039003420ec000af0a0006f
:100580008b05e9000f003200254dba000a05e8008e
:10059000020039003420ec000af0a0008b05e900cd
:1005a000080032000c00e0000600320015cdba0051
:1005b0000a05e800020039003420ec000af0a0002f
:1005c0008b05e9008984e80054a0b4000b00e0002a
:1005d000e2ff3a00000006009902ba00055d7800cb
:1005e0008b05e900f7ff3200c82ade00055d7800c0
:1005f0008b05e900f3ff32000c00e000f1ff320050
:1006000019ddba00eeff37006e6004000000000044
:100610005a66040000000000cc60040000000000e6
:10062000e660040000000000186104000000000003
:100630004661040000000000766104000000000034
:100640008261040000000000a861040000000000b6
:100650008c610400000000006466040000000000db
:10066000fa070400000000003600f800809fbe007a
:10067000829fbe00849fbe00869fbe000000fa00dd
:100680008020a9000000eb00be3107000080fa00c6
:100690004f03be004f02be004f01be004f00be0020
:1006a0003600f900004006003600f800809fbe00ca
:1006b000829fbe00849fbe00869fbe000000fa009d
:1006c000b53107008040a90010002000ad310700bf
:1006d0000080fa004f03be004f02be004f01be0073
:1006e0004f00be003600f900004006003600f8005a
:1006f000809fbe00829fbe00849fbe00869fbe007a
:100700000000fa008060a900200020009d31070051
:100710000080fa004f03be004f02be004f01be0032
:100720004f00be003600f900004006003600f80019
:10073000809fbe00829fbe00849fbe00869fbe0039
:100740000000fa008080a900300020008d310700f1
:100750000080fa004f03be004f02be004f01be00f2
:100760004f00be003600f900004006003600f800d9
:10077000809fbe00829fbe00849fbe00869fbe00f9
:100780000000fa008620a900211780000008200040
:10079000008060000000e00008003200e4e2a900f0
:1007a0000828ef0070408000200090008000eb00df
:1007b000010878000e28ef000d013700404080004e
:1007c0008000eb00b200200003002000820f5000e8
:1007d000838f5800fc003e00006001000b003700d2
:1007e00039003700750037009c003700f3003700f0
:1007f000c8003700d9003700f0003700db003700b1
:10080000f10037003400370050003700008020002e
:1008100020009000620060000000e000f3003a0059
:1008200000802000100090007040880000802000b0
:1008300010009000104078000ae8b7000080200007
:1008400010009000100090006040880000802000a0
:1008500010009000e6004000008020001100980089
:100860000080200090009000a03b2100808f50006d
:1008700003003a0000802000413b21001100980055
:1008800000802000a00090000100a100210098003d
:100890000080200090009000008020001000780070
:1008a000808f500004003a0000802000a0009000db
:1008b0000110a00021009800e002a8002000200004
:1008c00040408800ca003700e022a8002000200035
:1008d00040408800c6003700211780000000280033
:1008e000008060000000e00008003200008020006e
:1008f000604090008040e800008020006140980047
:10090000400020008d2b0700b90037008040800098
:100910008000d100f00f200000806000e016880009
:100920008040800061006000004078000004e0002a
:1009300003003200b000200040408800ac003700c7
:100940003000200040408800a900370021178000b7
:1009500000002800008060000000e0000800320075
:1009600000802000604090008040e800008020006f
:100970006140980040002000702b07009c00370069
:10098000e022a800804080004800de00e600600011
:10099000000f20000100700080408800804080002f
:1009a0000000a0008040880010c0b30012e8b7002b
:1009b00020002000404088008d00370012c8bf0092
:1009c000e14f50000a0032006040800010007800c3
:1009d000804088006040800020009000a040880097
:1009e000604080002040900016e8b700010037000a
:1009f0001268ef0081408000f00f2000808f5000cf
:100a000009003600804080004800de00e6006000fb
:100a1000000f200001007000e0168800a0002000f8
:100a2000404088007200370080408000e016880057
:100a30008040800061006000004078000004e00019
:100a4000030032005000200040408800680037005a
:100a500030002000404088006500370021178000ea
:100a600000002800008060000000e0000900320063
:100a700000802000604090008040e800008020005e
:100a800061409800e5e2a900500020002b2b0700f0
:100a90005700370016c8bf008080fb008100e900c6
:100aa000cf08de00814078000040e90016e8b7007a
:100ab0000104e00010003200604080006600400049
:100ac000604088000ac8bf000040e9000ae8b7009b
:100ad0000ac8bf000004e00003003a002000200024
:100ae000162b070042003700e022a800200020005b
:100af000404088003e003700a040800090407800d1
:100b00008180fb00e11688000000e800a04088001a
:100b100037003700211780000000280000806000a7
:100b20000000e000090032000080200060409000da
:100b30008040e800008020006140980040002000d4
:100b4000fe2a0700e5e2a90029003700e062a800bc
:100b500080002000404088002500370080002000f1
:100b600040408800e062a80021003700a0408000db
:100b7000d116800081407800014878000000e8002c
:100b8000a040880016c8bf000040e90016e8b70082
:100b900016c8bf000004e00004003200e0a2a90073
:100ba000600020004040880002003700e0a2a8005a
:100bb000d12a0700e082a8000d00370020002000a5
:100bc000de2a07000a003700008020006040900005
:100bd0008040e80000802000614098006000200014
:100be000d62a0700000000000100370000000000c6
:100bf0000080fa004f03be004f02be004f01be004e
:100c00004f00be003600f900004006000040da0048
:100c10000000fe0000000500889fbe008a9fbe0005
:100c20008c1f7800690007007000330003866c0099
:100c30006450e1002e0032006420e10033003200f5
:100c40006150e1002f0032006120e10031003200ec
:100c500085855500eb07b00009002000080420003e
:100c6000050037000804440089844c000a00310064
:100c70000603430087834b000001530081815b0022
:100c8000f8ff33000203be000800a000080444007f
:100c900089844c00f6ff3900c639dd0083017300fa
:100ca00001003200130020008904d1000884d30021
:100cb0000998a300050032000800a7000300a00067
:100cc0008904d1000884d3008b05e8008904d10091
:100cd0000884d3000001eb000281d2001500070058
:100ce00001f0a1000cf0a70001f0a00048003700bf
:100cf0006420e1004a0032000801be000200be008c
:100d0000f7ff37006120e100450032006000b800c5
:100d1000f3ff37000000200001f82700f0ff370044
:100d20004f89de0082017800500037006011b80062
:100d30005e00370081002000618055000b003d00ff
:100d40000b00200061fe2f000100e1001d003400b7
:100d500082817100610164008904d1000884d3009c
:100d60000000e800faff3a00710020006100640012
:100d700003007000020060000900320061044400ba
:100d8000e0844c000988a500050032008b05e800ce
:100d90006808e10002003a008904d1000884d30009
:100da000f20f20000258e10005003d00c75ddd00a4
:100db000f907b2008980750008007800000006007d
:100dc0000bf827008b007800000005000004be002f
:100dd000650007000003be000405be000200be005f
:100de00061000700844f7500000006000200be008d
:100df0006450e100050036006420e1000200360086
:100e00000968a30001003a000800be000160a000cc
:100e10004f0678004f05be004f04be0000000600dc
:100e2000f0ff2f00f1ff2700f9ff37006022b80024
:100e3000060220000000d0008180d2000482d2008f
:100e40008582d2000000a0000202520083825a0074
:100e5000030031000202420083824a000000a10028
:100e60000603e900f3ff3a0000000600881f78003f
:100e7000030478000300e00007003d00600010005c
:100e8000e080180060011900e081190002003b00b9
:100e900001f02d00030037000400070008f0a70050
:100ea00001f0a0004f04780000000600889fbe00fb
:100eb0008a9fbe00008270000402710004827100eb
:100ec000260032000004be000200be006011b8001f
:100ed0006b092000950220000182cf000a00390032
:100ee0000541b1000082cf00070039000541b10083
:100ef0000982cf00040039000541b1000882cf000b
:100f0000010039000541b1000542520012003200d3
:100f10000a003b0082817100610164008100d10000
:100f20000080d3008984d3000884d3008b05e800b7
:100f30000442e800f7ff3a000700370008044400c5
:100f400089844c0000004800818048008b05e9003e
:100f50000442e900f9ff3a0076ff07004f05be00a2
:100f60004f04be0000000600c70ade00f107b20011
:100f7000f50fb20008003200e1cf4200020032005b
:100f80000170a00024000500810f700001003200f4
:100f90000408050044000500810f700002003a00bb
:100fa000140005008502e9000000400081c04800ef
:100fb000fcff3b000170a0002400050080017800c8
:100fc00002003700b15978000201e9000200e00098
:100fd000fcff3a00000006008001780002003700a4
:100fe000815978000201e9000200e000fcff3a00ac
:100ff00000000600881f78000204780008017800cd
:10100000eeff0700080040004f04780000000600d3
:101010000000fa00881f780000047800ea81570079
:101020003fb9970088007800a07f200007000700e4
:101030000000e000020035008040eb000174780001
:101040004f0478000080fa00000006006200fa00f9
:10105000889fbe008a1f7800000578008104780010
:10106000020478008300780080f92f000f00400010
:10107000680607009a979f00a9979f000000eb0061
:10108000b09f9f001885fb008a04fb000a05ea0058
:101090004f55de0050022000808f54000d003200ba
:1010a000e10f55000b003a000a0178008800780033
:1010b0002f9097009f91970003000100a0979f0039
:1010c0000000e0008e0032003f9897000000e8002a
:1010d000b09f9f000a04440050022000808f5400fb
:1010e000040032000900e000e6ff3a003f98970054
:1010f000840037000000eb00909f9f00809f9f00be
:10110000f0979f00e0979f00d0979f00c0979f00a7
:1011100007003700e13a21000100500000004000c4
:10112000213a210061007800df98970001007000eb
:10113000d09f9f0088047800090478003845780023
:101140008a00fb00e03a2100110407000000e000e3
:10115000f0ff3a00a1c2b300814f55000e003a00e3
:10116000cf8897000180e900c08f9f0010007800b1
:10117000c09f9f000000e00005003d000000ea0065
:10118000c09f9f005f9897000020a000d09f9f0005
:101190000904e8000f003700c09f9f000000eb002b
:1011a00005003700f2ff2700820f500002003200d6
:1011b0006a01b900028040000904780088047800c0
:1011c000b900fb000103b100e98f5000f5ff3600c4
:1011d000c09f9f00e0c2b300984f10000200320091
:1011e0000080eb0019003700a0c2b300d84f1000f8
:1011f00007003a00cf8897000180e900c08f9f0068
:1012000010007800a09f9f000804e800100037003d
:101210000000eb00a09f9f008800780005003700c9
:10122000f3ff2700830f5000020032006a02b9006a
:101230000400410001047800880078003101fb00bf
:101240000203b100e90f5100f5ff3600a09f9f0097
:10125000984478008900fb00a0392100cc030700e6
:101260000000e000020032000804e800010037003e
:101270008044eb00c97f9f0080c6b30080cf54003c
:1012800004003a0098cf14000a003a00664050006b
:1012900006003700c0c6b30080cf540005003a00f6
:1012a00098cf140003003a0065404000c07f9f00c3
:1012b0000804e8001801fb00e3fb2f008f814100c8
:1012c00081f92f008f804000a0f92f000f0040000f
:1012d000100007000000e00009003a00e1fb2f00c9
:1012e0008f804000a0f92f000f0040000d0507007f
:1012f0000000e000020035000804e80061ff37004c
:101300000080eb004f0578004f04be000080fa001b
:1013100000000600889fbe008a1f78000004780045
:10132000824478000305780070c6b30080cf540073
:101330001a003c0000c0e90080cf5400cd003d0001
:101340006d40500080cf5400770032000b003c000d
:101350007140500080cf540035013c0000c0e900ce
:1013600080cf5400c3003d0050c2b30080cf540072
:101370002c0132007c4040000500370030c6b3002d
:1013800080cf54001a0032001e003c0000c0e9006b
:1013900080cf540026013a00b6003700f0c6b300f3
:1013a00080cf54006000320007003c0066405000cf
:1013b00080cf5400130032006540400080cf5400bd
:1013c0001b013a00d400370050c7b30080cf54004f
:1013d000550032006340400080cf5400520032007c
:1013e00002c7b30082cf540011013a00ff0037005a
:1013f0001181e90082087800780090001275780069
:101400001101370028609000c2c6b300824f50001f
:1014100007003a001101780064005100800878004c
:101420001000be004f89de008201780014003700f2
:1014300012c7b300824f500003003a001102780037
:101440006800520005003700a2c6b300824f50006a
:1014500006003a0091027800688052008008780007
:101460005001be004000be00050037001180e900b9
:101470008008780010007800cf80de006109b90094
:10148000009cbe000294be002862900085c6b30096
:10149000854f52000d00320025c6b300854f520023
:1014a00004003a000000fb00cf80de006109b900b3
:1014b0000800370045c7b300854f520003003200d3
:1014c000e6c24200854f520004003a00cf80de00a1
:1014d0006109b900009cbe000294be003802be0043
:1014e0002803be0078009000d1c2b300e00f520084
:1014f000e08f5a00e00f5b00e08f5b0008003500d2
:10150000881090000118a30002003200b1c2b3009d
:10151000030037000108a3005100320001c2b300ec
:10152000017578004c00370028609000c2c6b300f7
:10153000824f500008003a00110378006400530005
:10154000800878001002be006033b8000400be00be
:101550000601be001400370012c7b300824f5000ce
:1015600003003a00910278006880520005003700bd
:10157000a2c6b300824f500006003a001103780063
:1015800068005300800878005001be004000be0093
:10159000050037001180e90080087800100078000d
:1015a0008000eb006011b800009cbe000294be00f9
:1015b0002862900085c6b300854f52000d003200ae
:1015c00025c6b300854f520004003a000080fb009e
:1015d0008000eb006011b8000800370045c7b30079
:1015e000854f520003003200e6c24200854f520090
:1015f00004003a008000eb006011b800009cbe00bf
:101600000294be00081090000038a30014003200bd
:101610003800be002801be00e00f5000e08f5800e7
:10162000e00f5900e08f59000d00320080c7b30071
:1016300080cf54000300320080c5b30080cf540037
:1016400007003a007800900001c3b30001757800ec
:101650000000e800097578000000e80070049800b8
:1016600078009000000545006a04980089407800e1
:101670006900370028619000c0c4b300804f51005a
:1016800006003a00910378006880530080087800d3
:101690005001be004000be00050037001101780077
:1016a00064005100800878001000be00df050700cc
:1016b000009cbe000294be00b8009000780090002c
:1016c0000100e00002003d00d1c2b3000800370075
:1016d000881090000118a30002003200b1c2b300cc
:1016e000030037000108a3000400320001c2b30068
:1016f000017578000000e800700498007800900000
:10170000000545006a0498008900fb000800780085
:10171000530007004e00370028619000c3c6b30095
:101720001180e900834f5100240032000a003c0080
:10173000e4c15100834f51002700320083c1e8000b
:10174000834f51001500320020c6b300804f510076
:1017500020003a000a00370043c7b300834f51000e
:101760001d003200e6c14100834f51001a003200d3
:1017700010c7b300804f510016003a000600370032
:101780001180e9008008780010007800485c900023
:10179000084878002e0037001180e90080087800a2
:1017a00010007800680a9000cfa2de00612bb9001b
:1017b0000498be000690be0025003700800878001f
:1017c0001000780068099000cf91de000288be000a
:1017d0001f0037001180e9008008780010007800b1
:1017e000680c900008087800190037001181e900a2
:1017f0008208780012027800cfa2de00612bb900c7
:10180000049cbe000694be00f8009000010545004f
:101810006a0498008040780008007800920207006f
:101820000b0037007800900009757800060037003b
:1018300078009000000545000904e00001003a002e
:1018400059c2b300094d78000000e8007004980008
:101850000000eb004f0578004f04be0000000600ba
:101860002f04b000889fbe008a9fbe008c9fbe00e0
:101870008e1f78000007780081f79f003e04be00ad
:101880002e05be005e0890000000e00002003d0052
:1018900060002000500f98008e00780020fb2f0081
:1018a0000f00400046020700e20f50000a003a0015
:1018b00030002000100f9800b1c9b3000ff097005e
:1018c0008140400040302100e1cf50000d003e003b
:1018d000003021000b0037000000e0000f00340052
:1018e00030002000100f9800b1c9b3000ff197002d
:1018f00081404100c0302100e1cf500001003e0096
:1019000080302100ee009000b0487800b068780088
:101910001040780090409800f30037000000e0008d
:1019200005003a0022fb2f000f014100001978004a
:101930008001eb00e70037006022b8006033b80098
:101940000800be000a01be00800407000000e0009d
:1019500001003d000bf0a200705927009f989700ee
:101960000088b900026a280013002000db04070089
:10197000640650009c9f9f0013003b006306160006
:10198000c0ff2f00000666008c01ea00939f9f00b5
:101990000d3121000800be000a01be00070037001b
:1019a0000c08a300030032003d02be002d03be0060
:1019b0006d0507000c86d100e88646000c00e000ab
:1019c000f7ff3c00180037000c00e0001800320060
:1019d000c0ff2f00000666009c9f9f000d31210074
:1019e0006000b8000200200003ff2300070037005a
:1019f0000c08a300030032003d02be002d03be0010
:101a0000590507000c86d100e88646000c00e0006e
:101a1000f7ff3c000002be000203be000800be004b
:101a20000a01be00530407000004be000205be0008
:101a3000de08900060c6b3000ff29700804f52009e
:101a4000040032006000200062c4b300824f5200e4
:101a500002003a009f9a97006a804200810040008d
:101a6000f1b79f0001037800f30f53000200340028
:101a700037012000f7b79f0000c3b300c0779f0075
:101a800056fb2f000f0343000e007800a0b79f0005
:101a9000060778003d0037000800be000a01be00be
:101aa000010507000006be007fb1970068015100e4
:101ab000f2b79f004240a9000c0034002605070041
:101ac0000002be000203be000800be000a01be0004
:101ad0009b0507006022b80046782d007719240086
:101ae000210507000004be000205be00e800470013
:101af0008e0020000802be000a03be00b4b79f009b
:101b0000c5b79f00d6b79f00e7b79f000c01be0086
:101b1000010478000c003700a4002000050020001c
:101b2000c0fd2f000f004000840107006fa8970040
:101b3000ffa897000fb197009fb1970005c3b300ae
:101b4000056441000001be00e00f5100e08f590024
:101b5000030034000e07e900e10f4700eeff3a00f2
:101b6000880078003fb49700cfb497005fb5970026
:101b7000efb597000200370000c3b3008060780023
:101b80000e07e900fcff3b00688740007fb3970029
:101b90000600e000070034006022b8006033b8009f
:101ba0000800be000a01be00ed0307000000e000cf
:101bb000b9ff3c000e0378002fb7970051fb2f00b0
:101bc0008f804000010353009f9b97006780430074
:101bd000909f9f00020037000603e9000000e90023
:101be000010178008200780003c3b300b1cf110077
:101bf000f9ff3200909f9f00de09900061c6b3009c
:101c00000ff29700814f52000300320061c4b3000d
:101c1000814f520002003a000000e8000a0037003d
:101c20001000200051c6b3008ff2970081cf520000
:101c3000050032000540780050c4b2000080fb006f
:101c40000000e9004f00de0083014000868f510054
:101c500001003400860178000300e0001d0035001b
:101c600000c3b300868f510006003d0062c27900b8
:101c70006940400041c3b300814f520001003c0065
:101c8000694050008300e9008100410001003700f5
:101c9000840178000302e90001037800a142780082
:101ca00080cf5200faff320091c3b300814f500041
:101cb00001003a00054be8000400e00005003d008b
:101cc0000201e9008301e8001f9b97000603e8007a
:101cd000969f9f008ff397008700fb001f9a970045
:101ce0000e007800060007004f0778004f06be0080
:101cf0004f05be004f04be002f04b10000000600d7
:101d0000f0874700889fbe008a9fbe008c9fbe0060
:101d10008e1f780000047800814478000205be0020
:101d2000040678000b00e00002003c001b002000cd
:101d30006a3e210060c6b30080cf54000e0032001e
:101d400060c4b30080cf54000b00320070c6b300f3
:101d500080cf54000300320070c4b30080cf540021
:101d600081003a00e40f46007f00350058089000db
:101d7000800f56007c003d000c06e80060c6b300f2
:101d800080cf54001000320060c4b30080cf5400f4
:101d90000d003200081090000038a30004003a0043
:101da00058089000808f550001003d005b0c9800a2
:101db000580890000c005000500c980002003b00a6
:101dc0000000eb00500c980018089000e80090000c
:101dd0000c00e00026003c0002c3b30082707800d3
:101de0000000e800100c9800d80890000100e00006
:101df00003003c00881090000138a3000500320069
:101e0000e8009000e2c2b300827078000000e800b1
:101e1000100c9800580890008c00ea00810f5000c8
:101e200001003d000006ea008c00ea00210c980049
:101e3000000646005c0c98008b0f56000100340031
:101e40000b0678003c0c9800e80090001808900001
:101e5000008040000c0178008a00780057fc0700e1
:101e6000580890000c0650004c0c98009000370069
:101e70008c8f550018003d00008040000b01780059
:101e80008a0078004dfc070018089000008045008b
:101e9000100c98008b0556002b0c9800d808900069
:101ea0000100e00003003c00881090000138a3000e
:101eb00006003200e8009000e2c2b30082707800b1
:101ec000380890000000e800300c98005808900096
:101ed000400c980076003700008040000c0178002c
:101ee0008a00780035fc07001808900000004600c2
:101ef000100c98008c855500d80890000100e00077
:101f000003003c00881090000138a3000500320057
:101f1000e8009000e2c2b300827078000000e800a0
:101f2000100c980058089000808f55000100340074
:101f300080057800e80090001808900000804000bc
:101f40008c0045000b0178001cfc0700180890006d
:101f50000b004000100c9800580890008b055000b2
:101f60002b0c98005200370018089000e8009000f1
:101f70009a7078000000e800100c9800d8089000d3
:101f80000100e00003003c00881090000138a3002d
:101f900005003200e8009000e2c2b30082707800d1
:101fa0000000e800100c9800580890000000e000c5
:101fb000100034008b05e900808f550001003400cb
:101fc00080057800e800900018089000008040002c
:101fd0008a00e8000b017800f8fb07001808900061
:101fe0000b004000100c9800580890008b05500022
:101ff0002b0c9800e800900018089000008040002a
:10200000095878000007e8000c00e00004003500e3
:10201000b1c2b300014878008e0478000400370094
:10202000d1c2b300014878008e0478000c06ea00a3
:102030007d8557008006eb0009003700a2002000d4
:102040008c00780072805700310007007fb0970045
:102050008fb89700016d7800000678008d06e800c3
:102060000c00e000f5ff3c000d00e00009003a0024
:102070008e04780000c3b300805c78000500370050
:102080008d06e900fc80570061c07e0002c3b300ea
:10209000825c40000d00e000f9ff3c00e800900089
:1020a000180890000080400080845400390c98008b
:1020b0000810900074006000f00f50000e003a000d
:1020c000980890007800900000804000a8089000d8
:1020d00001004000b808900001004000c8089000ce
:1020e00001004000f8089000810f500002003d0000
:1020f00000805000000c98004f0778004f06be008b
:102100004f05be004f04be000f01b10000000600e5
:102110008002780001037800110009000203d80052
:1021200080017800830a78000299b9000201530007
:10213000920298000500780000000600881f7800d1
:102140008a9fbe008c9fbe00000478000205be007e
:102150000406be000401be000a00be00df02070044
:10216000008cbe000c01be00fa03070000055500fc
:1021700081855d002a0498003b04980008007800df
:102180004f06be004f05be004f0478000000060059
:10219000020037000304e00006003200000178006e
:1021a00002007800b041780081cf5100f9ff3a0079
:1021b000010037000001eb0002007800000006007b
:1021c000889fbe0000047800e68440001900d0001b
:1021d0004500de00f27f2000820f500010003a0020
:1021e000000ceb00990478006f816400200020004f
:1021f0001b003a00210190000200e00018003a00a4
:10220000110190000200e00015003a0010002000cb
:102210001100e00012003200200020001000370002
:102220000000e00004003a0001007800fb01070014
:102230000000e00008003c00f200280019016100e5
:1022400001fe2300810c710021c02f00010c400011
:102250000080eb0002003700000ceb000000eb00f8
:102260004f04be0000000600fc874700889fbe00a8
:102270008a9fbe008c9fbe008e1f780000067800eb
:1022800080c5b30080cf50000a0032007740400084
:1022900080cf50000a0032006940400080cf5000db
:1022a0000b0032009036210080bf9f00ae0020005e
:1022b0000a0037008235210082bf9f0006003700e8
:1022c0009336210083bf9f008e002000030037005b
:1022d0009436210084bf9f000e0120003c02be0006
:1022e0002c03be000605be000404be0040c6b300b9
:1022f00080cf5000030032006540400080cf500086
:102300000b003a00e00f5200e08f5a00e00f5b0034
:10231000e08f5b0006003d006000b8006011b8006f
:10232000040450008584580006055900878559002b
:10233000e80f57000400320040002000f00f570063
:1023400038003a000100370030002000e00f540050
:10235000e08f5c00e00f5d00e08f5d0004003a005c
:10236000dc0890008d0120000100e0000600320032
:102370008e00e900888060008fba9700e5c0780081
:10238000f1ef9f007d012000800078008100e900ce
:10239000050033008b05d1000a85d3008984d30062
:1023a0000884d300f9ff3700089ebe000a96be00dd
:1023b000120037008d06e9008e00e900848060007d
:1023c0000fb99700e2c1780082fd2f000f01410094
:1023d00003f17e00800078008100e90005003300f1
:1023e0008783d1000683d3008582d3000482d30083
:1023f000f9ff3700049ebe000696be003c02be00f8
:102400002c03be00e00f5200e08f5a00e00f5b008b
:10241000e08f5b008b0034000d00e000e5ff3c0026
:10242000880037002c60900081c6b300814f5000b7
:102430000b00320006003c000004e00008003200ff
:10244000e6c05000814f50004e003a0004003700b3
:10245000c1c6b300814f50004a003a002100370046
:102460000800e00004003a005c0890008d012000a4
:102470000000e00006003200110009000e84d800c0
:102480000fb99700e2c07800f1ef9f007d012000b6
:10249000110009000e84d8000a003700110009005d
:1024a0000e04d8008d06e9000e81b9000204540024
:1024b0008fb8970061417c0081fd2f008f80400024
:1024c00082f07e00000478000800e0000200320084
:1024d0000d00e000f1ff3c00cfc4de00614db9000b
:1024e00025003700e00f5400e08f5c0004003a0044
:1024f0005c0890008d0120000000e0000700320021
:102500006171b9000800be000f0307008fb9970082
:10251000e3417800f3ef9f007d0120006171b90075
:102520000800be0041fa07000b0037006171b900d6
:102530000800be00e90107008d06e90000f1b900be
:10254000020454000fba9700e4427c0084fd2f007f
:102550000f02420005f27e000004be00e00f5000b2
:10256000e08f5800020032000d00e000efff3c0059
:102570004fcdde008a057800089ebe000a96be0098
:1025800030003700e00f5400e08f5c00e00f5d008a
:10259000e08f5d0004003a005c0890008d0120008f
:1025a0000000e000090032006172b900612bb9003f
:1025b0000800be000a01be008c0307000fba970096
:1025c00064427800f4ef9f007d0120006172b90041
:1025d000612bb9000800be000a01be007c030700a1
:1025e0000d0037006172b900612bb9000800be0010
:1025f0000a01be00810307008d06e90000f2b90060
:10260000040454008fba970065427c0085fd2f00ba
:102610008f82420084f27e00009ebe000296be00c1
:102620003c04be002c05be00e00f5400e08f5c00af
:10263000e00f5d00e08f5d00020034000d00e0005f
:10264000e8ff3c00e80f570010003a000c10900023
:102650000038a3000d003200f78f560006003e0040
:1026600085fd2f008f824200e5c07e0000c3b300cd
:1026700080cf5000050032008d06e90002c3b30090
:1026800081fd2f008f80400082f07e00788116004f
:10269000120e98006c00900083fd2f008f81410086
:1026a0008d80410045fa07001c089000dc0890006e
:1026b000810f500006003d0000805000000e980081
:1026c0000c1090000040a100001698000f00370089
:1026d0000100e0000d003d008c109000f4806000cf
:1026e000f08f500009003a007c099000fc00900037
:1026f000810051000c099000828050000080500041
:102700004240a90001003400000e98004f077800f5
:102710004f06be004f05be004f04be00cf01b10002
:10272000000006000400fa00889fbe008a9fbe00d9
:102730008c1f78000004780001067800f80d9000e6
:10274000780090008085550008089000808555002d
:102750001808900080855500280890008085550055
:102760003808900080855500480890008085550005
:102770000002220090bf9f0000032300a0bf9f0023
:10278000081090000028a30015003a000b00e0009c
:10279000130034000b0578008a047800e20f55001e
:1027a0000100360029002000c801900009017800ce
:1027b000ee8057005800900003000100500498007c
:1027c0000000e0008c003200680890000900400022
:1027d000600c9800090555004240a900eeff3c003e
:1027e000780190000200e0000c003400c801900065
:1027f0008c007800580090000300010050049800fd
:102800008080eb000000e0007c003200e8089000cf
:102810007800900000804000600c9800880c9000c8
:102820000900e0001100340009057800e28f54002f
:10283000010036002a002000c80190000a0178003b
:10284000ec805700580090000300010050049800ed
:102850000000e00068003200680890000a004000b4
:10286000600c98008a845400edff3700180990002e
:102870000200e0000c003400c8019000e800900065
:102880005800900003000100500498008080eb0085
:102890000000e00059003200e8089000180890009d
:1028a00000804000600c9800a80c90000900e00037
:1028b0001100340009057800e28f54000100360051
:1028c0002a002000c80190000a017800ec8057001f
:1028d0005800900003000100500498000000e00040
:1028e00045003200680890000a004000600c980023
:1028f0008a845400edff3700380990000200e000a0
:102900000e003400e800900018089000808040001d
:10291000c801900058009000030001005004980086
:102920008080eb000000e00034003200e8089000f6
:102930003808900000804000600c9800c80c90009f
:102940000900e0001100340009057800e28f54000e
:10295000010036002a002000c80190000a0178001a
:10296000ec805700580090000300010050049800cc
:102970000000e00020003200680890000a004000db
:10298000600c98008a845400edff37000810900016
:102990008000eb000028a300180032000b00e000cc
:1029a000160034008b04780009057800e28f54008b
:1029b000010036002a002000c80190000a017800ba
:1029c000ee8057005800900003000100500498006a
:1029d0000000e00008003200680890000a00400093
:1029e000600c98008a8454004240a900eeff3c002d
:1029f0008000eb00010037008080eb0001007800d0
:102a00004f0678004f05be004f04be000080fa005c
:102a1000000006000108780000000600e600400003
:102a20001101780005002800850261006f01610036
:102a300082087800020032001200200011003700e6
:102a4000a0019000120020000300e0000d003a00f9
:102a5000900190000300e0000a003a001000e0003e
:102a600008003a00360037006403400096087800fa
:102a700080017800530b78009009780004087800f2
:102a800070015100110278000400e000f6ff3200ee
:102a90001300370064024000140378004f33de0057
:102aa000838141008308730080017800d30378009c
:102ab000cf3bde001403780006034300068a730050
:102ac0001302780004024200100378004f33de0046
:102ad0008609720090017800038841000201e90034
:102ae00091017800ef8f5100eaff360010003700a7
:102af00080017800530378004f33dd001002d100cd
:102b0000040873006402400094037800cf3bdd00aa
:102b10001303d10086897300110378004f33dd0061
:102b20009401d100030a73009108d1000201e8006a
:102b300091017800ff8f5100edff3e00ef886100aa
:102b40009188720002007800000006008f1fd100fb
:102b5000070307008f87e9000000e000000006007f
:102b6000809feb00020307008f87e9000000e00070
:102b7000000006002800fa00889fbe008a9fbe0061
:102b80008c9fbe0003866b008f0007006400e1008d
:102b9000440032006408e1004a0032006100e100b4
:102ba000460032006108e10049003200ec064700af
:102bb0006000b8003d02be003d03be00f486570031
:102bc0006011b8003d04be003d05be007d0320003d
:102bd0000b0037000000a0008d06e9001300320052
:102be0000402420085824a0006034b0087834b00a3
:102bf00000004000818048000201490083814900b3
:102c00000802520089825a000a035b008b835b0032
:102c1000f0ff3b000802420089824a000a034b0091
:102c20008b834b008d06e900edff3a008482720031
:102c300086827200f707b2008782720001003200bc
:102c4000150020001e0490003e0b90000603540067
:102c5000e63fb0000368a300070032000000a700b1
:102c60000500a0008301d1000281d3008180d30040
:102c70000080d3000603e8008301d1000281d30065
:102c80008180d3000080d3000002eb000482d200d8
:102c90002100070003f0a1000cf0a70003f0a00042
:102ca0005d003700640247006408e100570032000d
:102cb0003400be003401be00f6ff37006108e100b9
:102cc000520032006011b8006000b800f1ff370018
:102cd00003ff270002002000fbff3700839f6800ee
:102ce0000100e00002003d0060001000e0801800dc
:102cf0000300e00002003d0060011100e0811900c6
:102d00004af807004f00e00002003b00600010009e
:102d1000e080180000000600180020005700200086
:102d2000080453000d003d000600200097fc2f0012
:102d30000740e1001e0034008482720061026000de
:102d40008301d1000281d3008180d3000080d300b1
:102d50000804e800f8ff3a00470020006104600022
:102d600005047400040464000d003200610040009a
:102d7000e080480060014900e081490003b8a500f7
:102d8000070032000603e8006538e10004003a005d
:102d90008301d1000281d3008180d3000080d30061
:102da000f87f20000830e1000300350008037800b8
:102db0006000b8006011b8004433dd00f300b200d9
:102dc0008301730000000600680447000294be00ff
:102dd0000094be00fc0447008694be008494be00ac
:102de00009007800ab02070008007800a90207007c
:102df00099007800814f70000b003b000800be0076
:102e0000840207004f00b10003003700f3ff2700e2
:102e1000f2ff2f006110b9004f06be004f05be0043
:102e20004f04be000080fa00000006008103780015
:102e30004df807000001be006000b8000478a30050
:102e400013003a006220e10015003e000d00390039
:102e50008301d1000281d3008180d3008301d1009e
:102e60000281d3008180d3008301d1000281d3008d
:102e70008180d3000538b000c42add00f300b20021
:102e80008381720007f0a70003f0a0000000060095
:102e9000f3ff2700f2ff2f006110b900fbff37009e
:102ea00003ff2700f7ff37001400fa00889fbe00d9
:102eb0008a9fbe008c9fbe000004be000205be00bb
:102ec000680047000a90be000890be00710207002b
:102ed0000070a7000bf0a100304320009e0290007c
:102ee00080825200b0fe2f000028e10011003d005a
:102ef000b0fc2f000028e100150034001e099000ee
:102f00008e0890007e0090000501b0000201d10003
:102f10008180d3000080d3008502e800fbff3a00e7
:102f20000b00e000bcff3b0060001000e0801800d8
:102f3000b9ff3700f0ff2f00f1ff27000b00e00082
:102f4000b5ff3b000100280000002000b2ff370061
:102f50006000b800b0ff37004f89de0082017800c2
:102f600073023700000000002800fa00889fbe00ae
:102f70008a9fbe008c9fbe0003866b0092ff0700f5
:102f80000028a30064003a000128a30067003a006b
:102f90000008a30062003a000108a30065003a009f
:102fa0001e009000be08900081064000ed3fb10079
:102fb000f4805700ee019000111ab8008e099000bd
:102fc000311bb8009e099000311cb800511db8009b
:102fd000f485570046000700fe0190003a00070004
:102fe0008b85e8003e0007008e0990004000070036
:102ff000ee019000340007008b85e80038000700e0
:103000008e099000400007009e0990001b18b80030
:10301000890440000a854800fe0190003400070042
:103020008b85e80038000700ee01900030000700b3
:103030008e0990001b18b800890440000a854800da
:103040000a98a30008003a000402420085824a0060
:1030500006034b0087834b0008044c0089844c0016
:103060000a054d008d06e900848272008502730016
:103070004c3add008502720001003200150020008c
:10308000443ade001400b2004538de00cb45dd00d6
:103090000b007000c540de00cb4ddd008b80700062
:1030a0004549de00cb55dd000b017100c551de0046
:1030b0000d03780018ff070003f0a1000cf0a70033
:1030c00003f0a00054ff37001b18b8008502400031
:1030d00006834800e0834b0060044c000700370083
:1030e0001b18b8000603400087834800faff37002a
:1030f0001b18b8008703400008844800e0844c0097
:1031000060054d00000006001b18b80008044000d0
:1031100089844800faff37000108a3003bff3a000a
:103120005800be005801be00e3ff37000008a300ae
:1031300036ff3a0009047800f9ff3700000000006c
:1031400007f0a2000c01370038f707000400be00aa
:1031500000000600020ab900001bb9000200b80016
:10316000810042008100430000000600889fbe00ed
:103170008a9fbe0030044200b0844a0030054b00f4
:1031800090854b006000b1000898be000a90be0018
:103190000440e10005c8e10006d0e10007d8e100e5
:1031a00002003100680040001008e8004f05be0032
:1031b0004f04be0000000600889fbe008a9fbe002c
:1031c0003004be002005be000418540005985c00c1
:1031d00006185d0007985d00110020000440e10022
:1031e00005c8e10006d0e10007d8e1000100390080
:1031f0008000eb00108810004f05be004f04be0099
:10320000000006001200fa00889fbe008a9fbe00e0
:103210008c9fbe00e0b79f00f1b79f0082bf9f0068
:1032200093bf9f000605be000404be000000eb0033
:10323000d0b79f00c0b79f00b0b79f00a0b79f0056
:1032400090b79f00000678005fb19700cfb097005d
:10325000820141003fb097000200e00004003d0001
:10326000370007007e805700c0ff070003003700cb
:10327000330007007e805700cfff0700dfb69700be
:103280000d00e0000c0035006fb29700ffb2970010
:103290000fbb97009fbb970010002000010020008b
:1032a0006011b80000027200818272000203730094
:1032b000838373001b0007000c06e8000104200054
:1032c000810f5600e0ff3a000d00e00004003d00d1
:1032d0000802be000a03be007e805700a3ff07005d
:1032e0005fa897000000e00005003a001fb29700b9
:1032f000afb297003fb39700cfb397000900070024
:103300006fb09700ffb097000fb997009fb9970073
:103310004f06be004f05be004f04be000080fa00fd
:10332000000006000100070000000600a4b79f008f
:10333000b5b79f00c6b79f00d7b79f000000060033
:103340004f09de0082817100b3b79f004f01de009c
:103350008180400082807000a1b79f008fb09700ed
:103360004f09de00000040000200700090b79f008f
:103370007fa897004f01de008180400082807000ae
:1033800081b79f000d0007004f3ade0000004000ab
:1033900004007000f0af9f00080007000402420024
:1033a00085824a0006034b0087834b00dfff07003e
:1033b0000802be000a03be00000006002fb29700fc
:1033c000bfb297004fb39700dfb39700000006002d
:1033d000881f780018002000881f780089ff0700e8
:1033e0008f87e9004f04780000000600801feb0083
:1033f00084ff07008f87e90000000600889fbe0059
:103400008a9fbe00e00f5000e08f5800e00f590087
:10341000e08f59000c003d006044b8006055b800d2
:103420000000540081805c0002015d0083815d002a
:10343000180020001500070008003d0018000700d4
:103440000004eb00050037000004eb000f0007004c
:1034500002003d001200070018002000dcff0700fa
:103460000800e000060032006022b8006033b800b7
:103470000000520081805a0002015b0083815b00e2
:103480004f05be004f04be0000000600e00f5200d2
:10349000e08f5a00e00f5b00e08f5b000000060049
:1034a0006044b8006055b8000402540085825c0096
:1034b00006035d0087835d0000000600889fbe0054
:1034c0008a9fbe008c1f7800e00f5000e08f5800ec
:1034d000e00f5900e08f59000d003d006044b80036
:1034e0006055b8000000540081805c0002015d005e
:1034f00083815d001c0020000820e10009a8e10094
:103500000ab0e1000bb8e1000d003d0008003700f3
:103510000006eb00e00f5200e08f5a00e00f5b0066
:10352000e08f5b0006003d006044b8006055b800c5
:103530000402540085825c0006035d0087835d0001
:10354000aaff07000c00e000060032006022b8006d
:103550006033b8000000520081805a0002015b0015
:1035600083815b004f0678004f05be004f04be000c
:1035700000000600000000002800fa00889fbe003e
:103580008a9fbe008c9fbe00070678008786690070
:103590000c003b00030478008704780008f0a100c9
:1035a00009f0a100840f5000858f5800860f590044
:1035b000890f5c00030033000cf0a20001003a0008
:1035c0000cf0a10000fe07006400e1005f00320083
:1035d000780147006408e100610032006c01470097
:1035e000748557003200be001201be003a04be00ce
:1035f0001a05be001e039000be0a9000850353000a
:1036000006003d000004fd008104fd000205fd00f0
:103610008305fd008703ea00050378000df8a30089
:103620000400320060041400e0841c0060051d00ea
:10363000e0851d006022b8007d0320000d38e10008
:103640008006eb000b0039004433dd00f300b200cc
:103650008301730039003700848272000d02780004
:10366000e10664008b85d1000a85d3008984d300ec
:103670000884d3008703e900f7ff3b0008004000ff
:10368000898048000a0149008b81490004003b0001
:1036900060001000e080180060011900e08119004e
:1036a0000358a300090032008d82720084827200e8
:1036b000610260008301d1000281d3008180d300c8
:1036c0000080d3000603e8001b0037000348a30076
:1036d00017003a000600e000170034000603e90076
:1036e0000d00a3000000480081804800020149004d
:1036f000838149000348a3000f003a000600e00060
:10370000090034000603e900000040008180480001
:10371000020149008381490001003a000003eb00e7
:103720000348a300f5ff32006022b8000200370012
:10373000848272006182660077fd070003f0a100b9
:103740000cf0a70003f0a000b3fd370064014700b0
:103750006408e10002003a000df8a300abfd3a0056
:103760003200be001201be00abfd370000000000b9
:10377000889fbe008a9fbe008c9fbe000404be00ce
:103780000605be00809fbe00829fbe002f0007007e
:10379000040678000800be000a01be002b000700e6
:1037a000840678004f03be004f02be008d4f7600a6
:1037b0007fb0970013003300f0ff2f008b8f6b005a
:1037c00006003b000d0666000c00a7000a0037004b
:1037d00007f0a600100020000a003700880f5200f2
:1037e000898f5a008a0f5b008b8f5b0003003900c2
:1037f0001000200001003e000000200007f0a7009c
:103800000000ea004f06be004f05be004f04be0098
:1038100000000600e48240001078a3000700320098
:10382000640240001178a3003400be001401be0001
:10383000040032000330a700000006003500be007f
:103840001501be000330a0000000060005ff2700a0
:1038500005826100070032000428e1000100320007
:10386000240005000600070001003a00440005009e
:103870000408050002000700f9ff3a0014000500e3
:103880006f82610081027000850271008502720002
:1038900000000600800078005002be005003be0009
:1038a0004439de00f700b200f37f2000030161001d
:1038b000090032000218e10016003a00850172008a
:1038c00083017300838173000008200015003a0013
:1038d000400020001300370085017200830173004f
:1038e0008381730005003a0004a8be0006a8be004c
:1038f000100020000b0037000201e9000402420022
:1039000085824a0006034b0087834b000748a300cb
:10391000f9ff32000740a00004a8be0006a8be00c0
:10392000200020008000980092009800000006000f
:10393000881f7800030478000300e00007003d00c2
:1039400060001000e080180060011900e08119009b
:1039500002003b0001f02d000300370004000700c7
:1039600008f0a70003f0a0004f0478000000060054
:10397000889fbe0000827000040271000482710002
:103980002400320036432000c50020008383cf008e
:103990000a0039000541b1008283cf0007003900d9
:1039a0000541b1008183cf00040039000541b10019
:1039b0008083cf00010039000541b10085c3530069
:1039c0006022b800120032000a003b0084827200bc
:1039d000610260008301d1000281d3008180d300a5
:1039e0000080d3000603e8008743e800f7ff3a00b1
:1039f00007003700000040008180480002014900b4
:103a0000838149000603e9008743e900f9ff3a0092
:0c3a1000c1fc07004f04be0000000600cf
:020000040000fa
:103a1c00c7000000fc000000e9000000e20000000c
:103a2c00e4000000e0000000e5000000e7000000fa
:103a3c00ea000000eb000000e8000000ef000000ce
:103a4c00ee000000ec000000c4000000c500000007
:103a5c00c9000000e6000000c6000000f4000000f1
:103a6c00f6000000f2000000fb000000f90000006e
:103a7c00ff000000d6000000dc000000a2000000e7
:103a8c00a3000000a5000000a72000009201000088
:103a9c00e1000000ed000000f3000000fa0000005f
:103aac00f1000000d1000000aa000000ba000000e4
:103abc00bf00000010230000ac000000bd0000009f
:103acc00bc000000a1000000ab000000bb00000027
:103adc00912500009225000093250000022500008e
:103aec0024250000612500006225000056250000f9
:103afc0055250000632500005125000057250000c6
:103b0c005d2500005c2500005b25000010250000f1
:103b1c0014250000342500002c2500001c25000075
:103b2c00002500003c2500005e2500005f250000fc
:103b3c005a25000054250000692500006625000068
:103b4c0060250000502500006c2500006725000052
:103b5c00682500006425000065250000592500003b
:103b6c005825000052250000532500006b2500004d
:103b7c006a250000182500000c250000882500008f
:103b8c00842500008c250000902500008025000075
:103b9c00b1030000df00000093030000c00300002d
:103bac00a3030000c3030000b5000000c403000021
:103bbc00a603000098030000a9030000b403000052
:103bcc001e220000c6030000b503000029220000dd
:103bdc0061220000b1000000652200006422000098
:103bec002023000021230000f700000048220000e1
:103bfc00b000000019220000b70000001a220000db
:103c0c007f200000b2000000a0250000a0000000f2
:103c1c00610000001a030000e00000001703000020
:103c2c00f800000007030000ff0000000100000086
:103c3c00780100000001000030010000320100009a
:103c4c000601000039010000100100004a010000cb
:103c5c002e01000079010000060100008001000027
:103c6c004d000000430200008101000082010000b1
:103c7c008201000084010000840100008601000024
:103c8c008701000087010000890100008a01000003
:103c9c008b0100008b0100008d0100008e010000e3
:103cac008f010000900100009101000091010000c3
:103cbc009301000094010000f60100009601000041
:103ccc009701000098010000980100003d020000df
:103cdc009b0100009c0100009d01000020020000df
:103cec009f010000a0010000a0010000a201000043
:103cfc00a2010000a4010000a4010000a601000024
:103d0c00a7010000a7010000a9010000aa01000002
:103d1c00ab010000ac010000ac010000ae010000e2
:103d2c00af010000af010000b1010000b2010000c2
:103d3c00b3010000b3010000b5010000b5010000a3
:103d4c00b7010000b8010000b8010000ba01000082
:103d5c00bb010000bc010000bc010000be01000062
:103d6c00f7010000c0010000c1010000c201000009
:103d7c00c3010000c4010000c5010000c401000023
:103d8c00c7010000c8010000c7010000ca01000003
:103d9c00cb010000ca010000cd01000010010000a1
:103dac00dd010000010000008e010000de010000ba
:103dbc0012010000f301000003000000f1010000fb
:103dcc00f4010000f4010000f801000028010000db
:103ddc0022020000120100003a020000090000005b
:103dec00652c00003b0200003b0200003d0200007d
:103dfc00662c00003f02000040020000410200005f
:103e0c0041020000460200000a01000053020000bb
:103e1c0040000000810100008601000055020000f6
:103e2c00890100008a010000580200008f01000087
:103e3c005a020000900100005c0200005d020000cc
:103e4c005e0200005f0200009301000061020000ae
:103e5c006202000094010000640200006502000090
:103e6c006602000067020000970100009601000046
:103e7c006a020000622c00006c0200006d0200005f
:103e8c006e0200009c010000700200007102000034
:103e9c009d01000073020000740200009f010000ed
:103eac007602000077020000780200007902000020
:103ebc007a0200007b0200007c020000642c0000ef
:103ecc007e0200007f020000a601000081020000bb
:103edc0082020000a901000084020000850200009b
:103eec008602000087020000ae01000044020000c0
:103efc00b1010000b2010000450200008d0200007b
:103f0c008e0200008f02000090020000910200005f
:103f1c00b70100007b03000003000000fd0300005c
:103f2c00fe030000ff030000ac03000004000000cf
:103f3c008603000088030000890300008a03000048
:103f4c00b103000011030000c203000002000000d6
:103f5c00a3030000a3030000c40300000803000037
:103f6c00cc030000030000008c0300008e03000053
:103f7c008f030000d803000018010000f2030000ba
:103f8c000a000000f9030000f3030000f403000032
:103f9c00f5030000f6030000f7030000f703000030
:103fac00f9030000fa030000fa03000030040000db
:103fbc002003000050040000100700006004000003
:103fcc00220100008a04000036010000c104000038
:103fdc000e010000cf04000001000000c00400002e
:103fec00d00400004401000061050000260400001c
:103ffc00000000007d1d000001000000632c00008b
:10400c00001e000096010000a01e00005a010000d6
:10401c00001f000008060000101f0000060600002c
:10402c00201f000008060000301f000008060000da
:10403c00401f000006060000511f00000700000092
:10404c00591f0000521f00005b1f0000541f00008e
:10405c005d1f0000561f00005f1f0000601f000066
:10406c0008060000701f00000e000000ba1f0000c0
:10407c00bb1f0000c81f0000c91f0000ca1f0000a2
:10408c00cb1f0000da1f0000db1f0000f81f000030
:10409c00f91f0000ea1f0000eb1f0000fa1f0000d0
:1040ac00fb1f0000801f000008060000901f00008e
:1040bc0008060000a01f000008060000b01f00004a
:1040cc0004000000b81f0000b91f0000b21f000060
:1040dc00bc1f0000cc1f000001000000c31f00002b
:1040ec00d01f000002060000e01f000002060000c6
:1040fc00e51f000001000000ec1f0000f31f000092
:10410c0001000000fc1f00004e2100000100000017
:10411c0032210000702100001002000084210000f8
:10412c000100000083210000d02400001a050000cb
:10413c00302c00002f040000602c00000201000055
:10414c00672c000006010000752c00000201000025
:10415c00802c000064010000002d000026080000e7
:10416c0041ff00001a0300000000000001030000e2
:10417c0005070000090e00001012000014160000c4
:10418c00181c00001e8000009a450000418e0000a3
:10419c00418f000080450000454500004949000062
:1041ac00498e00008f900000929200004f99000001
:1041bc004f55000055590000999a00009b9c000037
:1041cc009d9e00009f410000494f000055a5000036
:1041dc00a5a60000a7a80000a9aa0000abac00008f
:1041ec00adae0000afb00000b1b20000b3b400003f
:1041fc00b5b60000b7b80000b9ba0000bbbc0000ef
:10420c00bdbe0000bfc00000c1c20000c3c400009e
:10421c00c5c60000c7c80000c9ca0000cbcc00004e
:10422c00cdce0000cfd00000d1d20000d3d40000fe
:10423c00d5d60000d7d80000d9da0000dbdc0000ae
:10424c00ddde0000dfe00000e1e20000e3e400005e
:10425c00e5e60000e7e80000e9ea0000ebec00000e
:10426c00edee0000eff00000f1f20000f3f40000be
:10427c00f5f60000f7f80000f9fa0000fbfc00006e
:10428c00fdfe0000ff2200002a3a00003c3e000028
:10429c003f7c00007f0000002b2c00003b3d000009
:1042ac005b5d000000460000415400000046000029
:1042bc0041540000333200000000000000000000f8
:1042cc00950000000000000000000000010000004c
:1042dc00f9000000000000000000000008000000d1
:1042ec00870000000400000000000000090000002e
:1042fc00af00000000000000010000000a000000f8
:10430c001b00000000000000010000000c00000079
:10431c00c300000001000000000000000d000000c0
:10432c00af000000020000000000000010000000c0
:10433c00ff00000000000000000000001100000061
:10434c00ff0000000000000001000000120000004f
:10435c00ff00000000000000010000001800000039
:10436c00ff00000000000000010000001900000028
:10437c00ff00000000000000010000002000000011
:10438c00ff00000000000000000000002100000001
:10439c00ff000000000000000000000026000000ec
:1043ac00df000000010000000000000037000000ea
:1043bc007300000000000000000000003a00000044
:1043cc002500000004000000000000003b0000007d
:1043dc002500000000000000000000002900000083
:1043ec00ff000000040000000000000017000000a7
:1043fc00ff00000000000000000000003230000050
:10440c0025300000327800002d25000030320000ed
:10441c00782d000025300000327800004c6f000031
:10442c006764000061740000656900002e54000090
:10443c0058540000005700006572000074650000bd
:10444c00202500002e3200006643000020200000d2
:10445c00252e00003266000068500000612000002c
:10446c00202500002e32000066560000202000009f
:10447c0025300000327800003a2500003032000070
:10448c00783a00002530000032780000202000002f
:10449c0025640000003000003a0000006e6000004f
:1044ac005a660000cc600000e66000001861000055
:1044bc00466100007661000082610000a861000086
:1044cc008c6100006e60000064660000cc6000002f
:1044dc00e660000018610000466100007661000093
:1044ec0082610000a86100008c610000303a00007d
:1044fc0000480000454c00004c4f00002e540000ba
:10450c005854000000480000656c00006c6f0000ff
:10451c00205700006f7200006c6400002100000046
:10452c0060000000000000000000000060000000bf
:10453c001300000000000000200100003f000000fc
:04454c00000000006b
:020000040000fa
:104550000400fa00100798001e0090000000e80018
:10456000104078000080fb00000f78001e007800eb
:10457000c800dd001e009000104078000080fb00a5
:10458000008f70001e0078000080fa000000060016
:104590000600fa00200798002e00900063004000fb
:1045a000104078000080fb008000eb00008fbe0010
:1045b0001e00be004809dd00c801de008301710055
:1045c0004801dd002e0090000080e80010407800d7
:1045d0000080fb008000eb00001f7100019771005c
:1045e0001e00be004809dd00c801de008301710025
:1045f0004801dd002e0090000000e8001040780027
:104600000080fb008000eb00001f7100019771002b
:104610001e00be004809dd00c801de0083017100f4
:104620004801dd002e009000104078000080fb0063
:104630008000eb00001f7100019771001e00be009a
:104640000080fa00000006000400fa00000f780065
:10465000110798001e009000804078001e0078002e
:10466000014878001e0fe8001e0090004800de00a0
:10467000100798001e009000804078001e0078000f
:10468000014878001e0fe8000080fa0000000600d4
:104690000600fa00000f7800120798002307980020
:1046a0001e009000804078001e00780001487800cd
:1046b0001e0fe8001e009000ae0090004809dd00cb
:1046c0004800de0000007100c808de0010079800f6
:1046d000210798001e009000804078001e0078009e
:1046e000014878001e0fe8001e009000ae00900008
:1046f0004809dd004800de0000007100c808de0047
:1047000010079800210798001e0090008040780054
:104710001e007800014878001e0fe8001e0090007f
:10472000ae0090004809dd004800de000000710086
:10473000c808de0010079800210798001e009000ae
:10474000804078001e007800014878001e0fe800c5
:104750000080fa00000006000a00fa002007980016
:104760003107980042079800ae009000010f7800d2
:10477000be009000110798004e0090000000e0007d
:104780000e0032001e009000904078001e0078005d
:10479000014878001e0fe8001e0090000000e800ad
:1047a000100798004e0090000000e90040079800b4
:1047b0004e0090000000e000f2ff3a000080fa0096
:1047c000000006000800fa00100798002107980072
:1047d000320798009e009000010f78002e00900094
:1047e000804078001e007800014878001e0fe80025
:1047f0003e0090000000e900300798003e00900065
:104800000000e000f5ff3a000080fa00000006001a
:104810000c00fa00300798004107980052079800f2
:10482000be009000010f7800ce00900011079800a4
:104830000000eb00200798001e0078001040780070
:104840008080fb001e009000104078000080fb007c
:1048500000805000200798001e0fe8001e00900006
:104860000000e800100798005e0090000000e900da
:10487000500798005e0090000000e0000300320046
:104880002e0090000000e000ebff32002e009000b0
:104890000080fa00000006000400fa00000f780013
:1048a00011079800010037001e0fe8001e00780075
:1048b000104078000004e000060032001e0078007e
:1048c000104078008000fb001e009000808f500098
:1048d000f5ff3a001e007800104078000000fb0051
:1048e0000080fa00000006000200fa00004f780085
:1048f0001e4078000004e000020032000000eb00df
:10490000010037000000eb000080fa000000060004
:104910000200fa00004f78001e4078000004e0001a
:10492000020032000000eb00010037000000eb0045
:104930000080fa00000006000c00fa005007980002
:104940005e009000100f78001e0078001040780084
:104950000080fb00100798001e0fe8001e0090006a
:1049600000407800e0ff07000000e0001100320086
:104970001e00780010407800404798001e0fe800a5
:104980004e409000e2ff07000000e00003003a0004
:104990000080eb008080eb001b0037001e009000c1
:1049a000c800dd004e4090000080fb000080400009
:1049b000100798001e0090000000e0000a0032007e
:1049c000511b20001e0090004e1c0700100798008d
:1049d0001e0090000000e00003003a000080eb00a1
:1049e0008080eb00080037001e0090008000eb0084
:1049f00030079800410798005e0090001e0878007c
:104a00003e009000ce0090000080fa0000000600fa
:104a10000a00fa0010079800210798003207980052
:104a200043079800521b20001e009000ae0090002b
:104a3000fd1b0700000f7800f00f20009e0078009b
:104a4000808f5000160036004e009000e10f50009d
:104a500002003e000040eb00210037001e007800fd
:104a60004800de00804078003e0090000148780059
:104a70003e0090000000e800300798001e0078001b
:104a8000804078003e009000014878003e00900091
:104a90000000e8003007980020c0b3001000370085
:104aa0001e0078000000e000030032004e0090007d
:104ab0000000e00002003a000040eb000800370070
:104ac0001e007800804078003e0090000148780089
:104ad0003e0090000000e8003007980010c0b300ce
:104ae0000080fa00000006000400fa001007980099
:104af0000000eb00000f78001e0090003040900096
:104b00000004e000390032001e009000a018900060
:104b1000101890001e01900066032000020343005d
:104b20001e01900092429000140020000001be007f
:104b300086007800054078005b1e07000000e0005a
:104b400028003a001e0090008040eb0031409800a1
:104b50001e00900010199000a01990001e009000f7
:104b6000c010900030109000000151008181590068
:104b70001e0090008010900070089000800f51007f
:104b8000818f5900190031001e00900020409000d4
:104b9000e24f500015003a001e00900010199000de
:104ba000a01990001e0090008010900070089000e6
:104bb00002004000838048001e0190006603200030
:104bc000020343001e019000924290001400200056
:104bd0000001be008600780005407800321e070004
:104be0000200370010002000000f78001e0078003f
:104bf0000080fa00000006000800fa001007980084
:104c000022079800330798000000eb00000f78009f
:104c10001e00900010199000a01990002e00900026
:104c2000be009000800f5100818f59001c0032009f
:104c30001e009000acff0700000f78001e007800f7
:104c40000000e00016003a001e0090006103200002
:104c5000808040001e009000104090001400200052
:104c60002e019000be019000f21d07000000e00040
:104c7000060032000080eb008080eb0020079800e7
:104c80003107980010002000000f78001e009000ef
:104c90002e019000be019000121898002318980071
:104ca0001e0078000080fa00000006000400fa00f0
:104cb000100798001e0090008bff0700000f78007f
:104cc0001e0078000000e0004e003a001e00900038
:104cd00010407800e34f500041003a001e00900061
:104ce00040409000e14f50003d003a001e0090000f
:104cf0006003b000022020008000eb00b1fe07003e
:104d00001e0090004023b00051a52a004efe07006f
:104d10001e0090006003b000222525001316240019
:104d20005bfe07001e009000a021b0002227270094
:104d30001314260056fe07001e009000a0089000e5
:104d4000100890001e019000e421200002024200a1
:104d50000001be00040078004dfe07001e00900018
:104d600080089000700090001e0190002422200016
:104d7000020242000001be000400780044fe070069
:104d80001e009000a01090001010900061004000e4
:104d9000e08048001e019000101998002119980029
:104da0001e009000a0189000101890001e019000a6
:104db00066032000020343001e019000924290000f
:104dc000140020000001be00860078000540780035
:104dd000b51d07001e0090008040eb004140980088
:104de0001e009000104090000001eb008040eb009e
:104df000ca1d07000000e000020032001000200081
:104e0000000f78001e0078000080fa000000060005
:104e10000600fa00000f7800120798002307980098
:104e20001e009000ae00900062005000e08058002c
:104e300010079800210798001e007800e0089000f5
:104e40005008900062015000e08158001e00900060
:104e5000ae009000800f5100818f590002003e008b
:104e60006000b800130037001e0078007012900038
:104e7000801a90001e007800500090008000eb0027
:104e80001e0190000191b90002017800ae0190006e
:104e9000009bb90086017800030141009e0190004b
:104ea0000018b800010141008200780004004000b1
:104eb000858048000080fa00000006001000fa001b
:104ec0005007980062079800730798005e009000f2
:104ed00090007800210798006e019000fe0190007c
:104ee0001000200001002000800f5100818f590028
:104ef000080036002e00900050099000e009900054
:104f00006e009000fe009000800f5100818f5900cc
:104f100004003e001000200001002000008fbe00b1
:104f2000b10037000080eb008080eb00008fbe00f6
:104f30002e009000104078000080fb00e20f50002f
:104f400057003200e30f500072003200e10f5000b2
:104f50009a003a006e029000340798003e009000dc
:104f60000000d100be009000008040003007980093
:104f70002e00900030119000c01190003e00900073
:104f80004900de008000eb00020040008380480002
:104f90000001be002e00900017ff07000000e00097
:104fa0008a003a00be009000f01f200000806000e0
:104fb000ae0090006003b000614078000080fb000c
:104fc000400798003e0090000000e800300798007d
:104fd0002e00900030119000c01190003e00900013
:104fe0004900de008000eb000200400083804800a2
:104ff0000001be002e009000fffe07000000e00050
:1050000074003a00be009000f01f20000080600095
:10501000ae0090006003b000614078000080fb00ab
:105020004800dd00ce0090000100700040079800ad
:105030006e00900061006000004078000004e00015
:10504000040032004e0090004400de006101b80010
:10505000110037004e0090006101b800f0ff200001
:10506000010020000202780003017800800178002e
:105070000100780003026200000061008000eb0084
:10508000c000dd00000020000001be006120b8006b
:105090000001710081817100028fbe005200370053
:1050a0002e00900030119000c01190006e00900012
:1050b000fe009000480add004800de00000072009b
:1050c000c808de0002004000838048000001be00e6
:1050d0002e009000c8fe07000000e0003f003a00ec
:1050e0002e00900061032000808040006e00900040
:1050f0000000400000017800f01f20000000610067
:105100000080400012fd07008000eb00008fbe0011
:10511000350037002e00900030119000c011900033
:105120006e009000fe009000490add004700de009e
:1051300000007200c708de000200400083804800c3
:105140000001be002e009000abfe07000000e00052
:1051500024003a002e00900061032000808040006f
:105160006e0090004201dd00f01f20000000610091
:105170000080400006fd07000001be00f0ff2f0088
:10518000f1ff20000202780083017800000178001e
:105190000100780002016200008061008000eb00e5
:1051a000c000dd0000002000008fbe006110b800cc
:1051b0001e1f70001e9770000b00370010002000ab
:1051c00001002000008fbe00070037000000000033
:1051d0000500370000000000030037000000000059
